{
    "contractName": "HotelNFT",
    "abi": [
        {
            "inputs": [
                {
                    "internalType": "string",
                    "name": "baseTokenURI",
                    "type": "string"
                }
            ],
            "stateMutability": "nonpayable",
            "type": "constructor"
        },
        {
            "anonymous": false,
            "inputs": [
                {
                    "indexed": true,
                    "internalType": "address",
                    "name": "owner",
                    "type": "address"
                },
                {
                    "indexed": true,
                    "internalType": "address",
                    "name": "approved",
                    "type": "address"
                },
                {
                    "indexed": true,
                    "internalType": "uint256",
                    "name": "tokenId",
                    "type": "uint256"
                }
            ],
            "name": "Approval",
            "type": "event"
        },
        {
            "anonymous": false,
            "inputs": [
                {
                    "indexed": true,
                    "internalType": "address",
                    "name": "owner",
                    "type": "address"
                },
                {
                    "indexed": true,
                    "internalType": "address",
                    "name": "operator",
                    "type": "address"
                },
                {
                    "indexed": false,
                    "internalType": "bool",
                    "name": "approved",
                    "type": "bool"
                }
            ],
            "name": "ApprovalForAll",
            "type": "event"
        },
        {
            "anonymous": false,
            "inputs": [
                {
                    "indexed": true,
                    "internalType": "address",
                    "name": "previousOwner",
                    "type": "address"
                },
                {
                    "indexed": true,
                    "internalType": "address",
                    "name": "newOwner",
                    "type": "address"
                }
            ],
            "name": "OwnershipTransferred",
            "type": "event"
        },
        {
            "anonymous": false,
            "inputs": [
                {
                    "indexed": true,
                    "internalType": "address",
                    "name": "from",
                    "type": "address"
                },
                {
                    "indexed": true,
                    "internalType": "address",
                    "name": "to",
                    "type": "address"
                },
                {
                    "indexed": true,
                    "internalType": "uint256",
                    "name": "tokenId",
                    "type": "uint256"
                }
            ],
            "name": "Transfer",
            "type": "event"
        },
        {
            "inputs": [
                {
                    "internalType": "address",
                    "name": "to",
                    "type": "address"
                },
                {
                    "internalType": "uint256",
                    "name": "tokenId",
                    "type": "uint256"
                }
            ],
            "name": "approve",
            "outputs": [],
            "stateMutability": "nonpayable",
            "type": "function"
        },
        {
            "inputs": [
                {
                    "internalType": "address",
                    "name": "owner",
                    "type": "address"
                }
            ],
            "name": "balanceOf",
            "outputs": [
                {
                    "internalType": "uint256",
                    "name": "",
                    "type": "uint256"
                }
            ],
            "stateMutability": "view",
            "type": "function",
            "constant": true
        },
        {
            "inputs": [
                {
                    "internalType": "uint256",
                    "name": "tokenId",
                    "type": "uint256"
                }
            ],
            "name": "burn",
            "outputs": [],
            "stateMutability": "nonpayable",
            "type": "function"
        },
        {
            "inputs": [
                {
                    "internalType": "uint256",
                    "name": "tokenId",
                    "type": "uint256"
                }
            ],
            "name": "getApproved",
            "outputs": [
                {
                    "internalType": "address",
                    "name": "",
                    "type": "address"
                }
            ],
            "stateMutability": "view",
            "type": "function",
            "constant": true
        },
        {
            "inputs": [
                {
                    "internalType": "address",
                    "name": "owner",
                    "type": "address"
                },
                {
                    "internalType": "address",
                    "name": "operator",
                    "type": "address"
                }
            ],
            "name": "isApprovedForAll",
            "outputs": [
                {
                    "internalType": "bool",
                    "name": "",
                    "type": "bool"
                }
            ],
            "stateMutability": "view",
            "type": "function",
            "constant": true
        },
        {
            "inputs": [],
            "name": "name",
            "outputs": [
                {
                    "internalType": "string",
                    "name": "",
                    "type": "string"
                }
            ],
            "stateMutability": "view",
            "type": "function",
            "constant": true
        },
        {
            "inputs": [],
            "name": "owner",
            "outputs": [
                {
                    "internalType": "address",
                    "name": "",
                    "type": "address"
                }
            ],
            "stateMutability": "view",
            "type": "function",
            "constant": true
        },
        {
            "inputs": [
                {
                    "internalType": "uint256",
                    "name": "tokenId",
                    "type": "uint256"
                }
            ],
            "name": "ownerOf",
            "outputs": [
                {
                    "internalType": "address",
                    "name": "",
                    "type": "address"
                }
            ],
            "stateMutability": "view",
            "type": "function",
            "constant": true
        },
        {
            "inputs": [],
            "name": "renounceOwnership",
            "outputs": [],
            "stateMutability": "nonpayable",
            "type": "function"
        },
        {
            "inputs": [
                {
                    "internalType": "address",
                    "name": "from",
                    "type": "address"
                },
                {
                    "internalType": "address",
                    "name": "to",
                    "type": "address"
                },
                {
                    "internalType": "uint256",
                    "name": "tokenId",
                    "type": "uint256"
                }
            ],
            "name": "safeTransferFrom",
            "outputs": [],
            "stateMutability": "nonpayable",
            "type": "function"
        },
        {
            "inputs": [
                {
                    "internalType": "address",
                    "name": "from",
                    "type": "address"
                },
                {
                    "internalType": "address",
                    "name": "to",
                    "type": "address"
                },
                {
                    "internalType": "uint256",
                    "name": "tokenId",
                    "type": "uint256"
                },
                {
                    "internalType": "bytes",
                    "name": "_data",
                    "type": "bytes"
                }
            ],
            "name": "safeTransferFrom",
            "outputs": [],
            "stateMutability": "nonpayable",
            "type": "function"
        },
        {
            "inputs": [
                {
                    "internalType": "address",
                    "name": "operator",
                    "type": "address"
                },
                {
                    "internalType": "bool",
                    "name": "approved",
                    "type": "bool"
                }
            ],
            "name": "setApprovalForAll",
            "outputs": [],
            "stateMutability": "nonpayable",
            "type": "function"
        },
        {
            "inputs": [],
            "name": "symbol",
            "outputs": [
                {
                    "internalType": "string",
                    "name": "",
                    "type": "string"
                }
            ],
            "stateMutability": "view",
            "type": "function",
            "constant": true
        },
        {
            "inputs": [
                {
                    "internalType": "uint256",
                    "name": "index",
                    "type": "uint256"
                }
            ],
            "name": "tokenByIndex",
            "outputs": [
                {
                    "internalType": "uint256",
                    "name": "",
                    "type": "uint256"
                }
            ],
            "stateMutability": "view",
            "type": "function",
            "constant": true
        },
        {
            "inputs": [
                {
                    "internalType": "address",
                    "name": "owner",
                    "type": "address"
                },
                {
                    "internalType": "uint256",
                    "name": "index",
                    "type": "uint256"
                }
            ],
            "name": "tokenOfOwnerByIndex",
            "outputs": [
                {
                    "internalType": "uint256",
                    "name": "",
                    "type": "uint256"
                }
            ],
            "stateMutability": "view",
            "type": "function",
            "constant": true
        },
        {
            "inputs": [
                {
                    "internalType": "uint256",
                    "name": "tokenId",
                    "type": "uint256"
                }
            ],
            "name": "tokenURI",
            "outputs": [
                {
                    "internalType": "string",
                    "name": "",
                    "type": "string"
                }
            ],
            "stateMutability": "view",
            "type": "function",
            "constant": true
        },
        {
            "inputs": [],
            "name": "totalSupply",
            "outputs": [
                {
                    "internalType": "uint256",
                    "name": "",
                    "type": "uint256"
                }
            ],
            "stateMutability": "view",
            "type": "function",
            "constant": true
        },
        {
            "inputs": [
                {
                    "internalType": "address",
                    "name": "from",
                    "type": "address"
                },
                {
                    "internalType": "address",
                    "name": "to",
                    "type": "address"
                },
                {
                    "internalType": "uint256",
                    "name": "tokenId",
                    "type": "uint256"
                }
            ],
            "name": "transferFrom",
            "outputs": [],
            "stateMutability": "nonpayable",
            "type": "function"
        },
        {
            "inputs": [
                {
                    "internalType": "address",
                    "name": "newOwner",
                    "type": "address"
                }
            ],
            "name": "transferOwnership",
            "outputs": [],
            "stateMutability": "nonpayable",
            "type": "function"
        },
        {
            "inputs": [
                {
                    "internalType": "address",
                    "name": "user",
                    "type": "address"
                }
            ],
            "name": "createToken",
            "outputs": [
                {
                    "internalType": "uint256",
                    "name": "",
                    "type": "uint256"
                }
            ],
            "stateMutability": "nonpayable",
            "type": "function"
        },
        {
            "inputs": [
                {
                    "internalType": "address",
                    "name": "_owner",
                    "type": "address"
                }
            ],
            "name": "getTokenIds",
            "outputs": [
                {
                    "internalType": "uint256[]",
                    "name": "",
                    "type": "uint256[]"
                }
            ],
            "stateMutability": "view",
            "type": "function",
            "constant": true
        },
        {
            "inputs": [
                {
                    "internalType": "bytes4",
                    "name": "interfaceId",
                    "type": "bytes4"
                }
            ],
            "name": "supportsInterface",
            "outputs": [
                {
                    "internalType": "bool",
                    "name": "",
                    "type": "bool"
                }
            ],
            "stateMutability": "view",
            "type": "function",
            "constant": true
        }
    ],
    "bytecode": "0x60806040523480156200001157600080fd5b5060405162003c8e38038062003c8e833981810160405281019062000037919062000313565b6040518060400160405280600981526020017f486f74656c204e465400000000000000000000000000000000000000000000008152506040518060400160405280600481526020017f484e4654000000000000000000000000000000000000000000000000000000008152508160009080519060200190620000bb929190620001e5565b508060019080519060200190620000d4929190620001e5565b505050620000f7620000eb6200011760201b60201c565b6200011f60201b60201c565b80600c90805190602001906200010f929190620001e5565b5050620004e8565b600033905090565b6000600a60009054906101000a900473ffffffffffffffffffffffffffffffffffffffff16905081600a60006101000a81548173ffffffffffffffffffffffffffffffffffffffff021916908373ffffffffffffffffffffffffffffffffffffffff1602179055508173ffffffffffffffffffffffffffffffffffffffff168173ffffffffffffffffffffffffffffffffffffffff167f8be0079c531659141344cd1fd0a4f28419497f9722a3daafe3b4186f6b6457e060405160405180910390a35050565b828054620001f390620003f9565b90600052602060002090601f01602090048101928262000217576000855562000263565b82601f106200023257805160ff191683800117855562000263565b8280016001018555821562000263579182015b828111156200026257825182559160200191906001019062000245565b5b50905062000272919062000276565b5090565b5b808211156200029157600081600090555060010162000277565b5090565b6000620002ac620002a6846200038d565b62000364565b905082815260208101848484011115620002cb57620002ca620004c8565b5b620002d8848285620003c3565b509392505050565b600082601f830112620002f857620002f7620004c3565b5b81516200030a84826020860162000295565b91505092915050565b6000602082840312156200032c576200032b620004d2565b5b600082015167ffffffffffffffff8111156200034d576200034c620004cd565b5b6200035b84828501620002e0565b91505092915050565b60006200037062000383565b90506200037e82826200042f565b919050565b6000604051905090565b600067ffffffffffffffff821115620003ab57620003aa62000494565b5b620003b682620004d7565b9050602081019050919050565b60005b83811015620003e3578082015181840152602081019050620003c6565b83811115620003f3576000848401525b50505050565b600060028204905060018216806200041257607f821691505b6020821081141562000429576200042862000465565b5b50919050565b6200043a82620004d7565b810181811067ffffffffffffffff821117156200045c576200045b62000494565b5b80604052505050565b7f4e487b7100000000000000000000000000000000000000000000000000000000600052602260045260246000fd5b7f4e487b7100000000000000000000000000000000000000000000000000000000600052604160045260246000fd5b600080fd5b600080fd5b600080fd5b600080fd5b6000601f19601f8301169050919050565b61379680620004f86000396000f3fe608060405234801561001057600080fd5b50600436106101425760003560e01c806370a08231116100b8578063b88d4fde1161007c578063b88d4fde14610375578063c21ab7f914610391578063c87b56dd146103c1578063d004b036146103f1578063e985e9c514610421578063f2fde38b1461045157610142565b806370a08231146102e3578063715018a6146103135780638da5cb5b1461031d57806395d89b411461033b578063a22cb4651461035957610142565b806323b872dd1161010a57806323b872dd146101ff5780632f745c591461021b57806342842e0e1461024b57806342966c68146102675780634f6ccce7146102835780636352211e146102b357610142565b806301ffc9a71461014757806306fdde0314610177578063081812fc14610195578063095ea7b3146101c557806318160ddd146101e1575b600080fd5b610161600480360381019061015c9190612586565b61046d565b60405161016e9190612aa8565b60405180910390f35b61017f61047f565b60405161018c9190612ac3565b60405180910390f35b6101af60048036038101906101aa91906125e0565b610511565b6040516101bc9190612a1f565b60405180910390f35b6101df60048036038101906101da9190612546565b610596565b005b6101e96106ae565b6040516101f69190612d45565b60405180910390f35b61021960048036038101906102149190612430565b6106bb565b005b61023560048036038101906102309190612546565b61071b565b6040516102429190612d45565b60405180910390f35b61026560048036038101906102609190612430565b6107c0565b005b610281600480360381019061027c91906125e0565b6107e0565b005b61029d600480360381019061029891906125e0565b61083c565b6040516102aa9190612d45565b60405180910390f35b6102cd60048036038101906102c891906125e0565b6108ad565b6040516102da9190612a1f565b60405180910390f35b6102fd60048036038101906102f891906123c3565b61095f565b60405161030a9190612d45565b60405180910390f35b61031b610a17565b005b610325610a9f565b6040516103329190612a1f565b60405180910390f35b610343610ac9565b6040516103509190612ac3565b60405180910390f35b610373600480360381019061036e9190612506565b610b5b565b005b61038f600480360381019061038a9190612483565b610b71565b005b6103ab60048036038101906103a691906123c3565b610bd3565b6040516103b89190612d45565b60405180910390f35b6103db60048036038101906103d691906125e0565b610c7c565b6040516103e89190612ac3565b60405180910390f35b61040b600480360381019061040691906123c3565b610d23565b6040516104189190612a86565b60405180910390f35b61043b600480360381019061043691906123f0565b610dd3565b6040516104489190612aa8565b60405180910390f35b61046b600480360381019061046691906123c3565b610e67565b005b600061047882610f5f565b9050919050565b60606000805461048e90612fa3565b80601f01602080910402602001604051908101604052809291908181526020018280546104ba90612fa3565b80156105075780601f106104dc57610100808354040283529160200191610507565b820191906000526020600020905b8154815290600101906020018083116104ea57829003601f168201915b5050505050905090565b600061051c82610fd9565b61055b576040517f08c379a000000000000000000000000000000000000000000000000000000000815260040161055290612c45565b60405180910390fd5b6004600083815260200190815260200160002060009054906101000a900473ffffffffffffffffffffffffffffffffffffffff169050919050565b60006105a1826108ad565b90508073ffffffffffffffffffffffffffffffffffffffff168373ffffffffffffffffffffffffffffffffffffffff161415610612576040517f08c379a000000000000000000000000000000000000000000000000000000000815260040161060990612cc5565b60405180910390fd5b8073ffffffffffffffffffffffffffffffffffffffff16610631611045565b73ffffffffffffffffffffffffffffffffffffffff161480610660575061065f8161065a611045565b610dd3565b5b61069f576040517f08c379a000000000000000000000000000000000000000000000000000000000815260040161069690612bc5565b60405180910390fd5b6106a9838361104d565b505050565b6000600880549050905090565b6106cc6106c6611045565b82611106565b61070b576040517f08c379a000000000000000000000000000000000000000000000000000000000815260040161070290612ce5565b60405180910390fd5b6107168383836111e4565b505050565b60006107268361095f565b8210610767576040517f08c379a000000000000000000000000000000000000000000000000000000000815260040161075e90612ae5565b60405180910390fd5b600660008473ffffffffffffffffffffffffffffffffffffffff1673ffffffffffffffffffffffffffffffffffffffff168152602001908152602001600020600083815260200190815260200160002054905092915050565b6107db83838360405180602001604052806000815250610b71565b505050565b6107f16107eb611045565b82611106565b610830576040517f08c379a000000000000000000000000000000000000000000000000000000000815260040161082790612d25565b60405180910390fd5b61083981611440565b50565b60006108466106ae565b8210610887576040517f08c379a000000000000000000000000000000000000000000000000000000000815260040161087e90612d05565b60405180910390fd5b6008828154811061089b5761089a61313c565b5b90600052602060002001549050919050565b6000806002600084815260200190815260200160002060009054906101000a900473ffffffffffffffffffffffffffffffffffffffff169050600073ffffffffffffffffffffffffffffffffffffffff168173ffffffffffffffffffffffffffffffffffffffff161415610956576040517f08c379a000000000000000000000000000000000000000000000000000000000815260040161094d90612c05565b60405180910390fd5b80915050919050565b60008073ffffffffffffffffffffffffffffffffffffffff168273ffffffffffffffffffffffffffffffffffffffff1614156109d0576040517f08c379a00000000000000000000000000000000000000000000000000000000081526004016109c790612be5565b60405180910390fd5b600360008373ffffffffffffffffffffffffffffffffffffffff1673ffffffffffffffffffffffffffffffffffffffff168152602001908152602001600020549050919050565b610a1f611045565b73ffffffffffffffffffffffffffffffffffffffff16610a3d610a9f565b73ffffffffffffffffffffffffffffffffffffffff1614610a93576040517f08c379a0000000000000000000000000000000000000000000000000000000008152600401610a8a90612c65565b60405180910390fd5b610a9d6000611551565b565b6000600a60009054906101000a900473ffffffffffffffffffffffffffffffffffffffff16905090565b606060018054610ad890612fa3565b80601f0160208091040260200160405190810160405280929190818152602001828054610b0490612fa3565b8015610b515780601f10610b2657610100808354040283529160200191610b51565b820191906000526020600020905b815481529060010190602001808311610b3457829003601f168201915b5050505050905090565b610b6d610b66611045565b8383611617565b5050565b610b82610b7c611045565b83611106565b610bc1576040517f08c379a0000000000000000000000000000000000000000000000000000000008152600401610bb890612ce5565b60405180910390fd5b610bcd84848484611784565b50505050565b6000610bdd611045565b73ffffffffffffffffffffffffffffffffffffffff16610bfb610a9f565b73ffffffffffffffffffffffffffffffffffffffff1614610c51576040517f08c379a0000000000000000000000000000000000000000000000000000000008152600401610c4890612c65565b60405180910390fd5b610c5b600b6117e0565b6000610c67600b6117f6565b9050610c738382611804565b80915050919050565b6060610c8782610fd9565b610cc6576040517f08c379a0000000000000000000000000000000000000000000000000000000008152600401610cbd90612ca5565b60405180910390fd5b6000610cd06119d2565b90506000815111610cf05760405180602001604052806000815250610d1b565b80610cfa84611a64565b604051602001610d0b9291906129fb565b6040516020818303038152906040525b915050919050565b60606000610d308361095f565b67ffffffffffffffff811115610d4957610d4861316b565b5b604051908082528060200260200182016040528015610d775781602001602082028036833780820191505090505b50905060005b610d868461095f565b811015610dc957610d97848261071b565b828281518110610daa57610da961313c565b5b6020026020010181815250508080610dc190613006565b915050610d7d565b8192505050919050565b6000600560008473ffffffffffffffffffffffffffffffffffffffff1673ffffffffffffffffffffffffffffffffffffffff16815260200190815260200160002060008373ffffffffffffffffffffffffffffffffffffffff1673ffffffffffffffffffffffffffffffffffffffff16815260200190815260200160002060009054906101000a900460ff16905092915050565b610e6f611045565b73ffffffffffffffffffffffffffffffffffffffff16610e8d610a9f565b73ffffffffffffffffffffffffffffffffffffffff1614610ee3576040517f08c379a0000000000000000000000000000000000000000000000000000000008152600401610eda90612c65565b60405180910390fd5b600073ffffffffffffffffffffffffffffffffffffffff168173ffffffffffffffffffffffffffffffffffffffff161415610f53576040517f08c379a0000000000000000000000000000000000000000000000000000000008152600401610f4a90612b25565b60405180910390fd5b610f5c81611551565b50565b60007f780e9d63000000000000000000000000000000000000000000000000000000007bffffffffffffffffffffffffffffffffffffffffffffffffffffffff1916827bffffffffffffffffffffffffffffffffffffffffffffffffffffffff19161480610fd25750610fd182611bc5565b5b9050919050565b60008073ffffffffffffffffffffffffffffffffffffffff166002600084815260200190815260200160002060009054906101000a900473ffffffffffffffffffffffffffffffffffffffff1673ffffffffffffffffffffffffffffffffffffffff1614159050919050565b600033905090565b816004600083815260200190815260200160002060006101000a81548173ffffffffffffffffffffffffffffffffffffffff021916908373ffffffffffffffffffffffffffffffffffffffff160217905550808273ffffffffffffffffffffffffffffffffffffffff166110c0836108ad565b73ffffffffffffffffffffffffffffffffffffffff167f8c5be1e5ebec7d5bd14f71427d1e84f3dd0314c0f7b2291e5b200ac8c7c3b92560405160405180910390a45050565b600061111182610fd9565b611150576040517f08c379a000000000000000000000000000000000000000000000000000000000815260040161114790612ba5565b60405180910390fd5b600061115b836108ad565b90508073ffffffffffffffffffffffffffffffffffffffff168473ffffffffffffffffffffffffffffffffffffffff1614806111ca57508373ffffffffffffffffffffffffffffffffffffffff166111b284610511565b73ffffffffffffffffffffffffffffffffffffffff16145b806111db57506111da8185610dd3565b5b91505092915050565b8273ffffffffffffffffffffffffffffffffffffffff16611204826108ad565b73ffffffffffffffffffffffffffffffffffffffff161461125a576040517f08c379a000000000000000000000000000000000000000000000000000000000815260040161125190612c85565b60405180910390fd5b600073ffffffffffffffffffffffffffffffffffffffff168273ffffffffffffffffffffffffffffffffffffffff1614156112ca576040517f08c379a00000000000000000000000000000000000000000000000000000000081526004016112c190612b65565b60405180910390fd5b6112d5838383611ca7565b6112e060008261104d565b6001600360008573ffffffffffffffffffffffffffffffffffffffff1673ffffffffffffffffffffffffffffffffffffffff16815260200190815260200160002060008282546113309190612eb9565b925050819055506001600360008473ffffffffffffffffffffffffffffffffffffffff1673ffffffffffffffffffffffffffffffffffffffff16815260200190815260200160002060008282546113879190612e32565b92505081905550816002600083815260200190815260200160002060006101000a81548173ffffffffffffffffffffffffffffffffffffffff021916908373ffffffffffffffffffffffffffffffffffffffff160217905550808273ffffffffffffffffffffffffffffffffffffffff168473ffffffffffffffffffffffffffffffffffffffff167fddf252ad1be2c89b69c2b068fc378daa952ba7f163c4a11628f55a4df523b3ef60405160405180910390a4505050565b600061144b826108ad565b905061145981600084611ca7565b61146460008361104d565b6001600360008373ffffffffffffffffffffffffffffffffffffffff1673ffffffffffffffffffffffffffffffffffffffff16815260200190815260200160002060008282546114b49190612eb9565b925050819055506002600083815260200190815260200160002060006101000a81549073ffffffffffffffffffffffffffffffffffffffff021916905581600073ffffffffffffffffffffffffffffffffffffffff168273ffffffffffffffffffffffffffffffffffffffff167fddf252ad1be2c89b69c2b068fc378daa952ba7f163c4a11628f55a4df523b3ef60405160405180910390a45050565b6000600a60009054906101000a900473ffffffffffffffffffffffffffffffffffffffff16905081600a60006101000a81548173ffffffffffffffffffffffffffffffffffffffff021916908373ffffffffffffffffffffffffffffffffffffffff1602179055508173ffffffffffffffffffffffffffffffffffffffff168173ffffffffffffffffffffffffffffffffffffffff167f8be0079c531659141344cd1fd0a4f28419497f9722a3daafe3b4186f6b6457e060405160405180910390a35050565b8173ffffffffffffffffffffffffffffffffffffffff168373ffffffffffffffffffffffffffffffffffffffff161415611686576040517f08c379a000000000000000000000000000000000000000000000000000000000815260040161167d90612b85565b60405180910390fd5b80600560008573ffffffffffffffffffffffffffffffffffffffff1673ffffffffffffffffffffffffffffffffffffffff16815260200190815260200160002060008473ffffffffffffffffffffffffffffffffffffffff1673ffffffffffffffffffffffffffffffffffffffff16815260200190815260200160002060006101000a81548160ff0219169083151502179055508173ffffffffffffffffffffffffffffffffffffffff168373ffffffffffffffffffffffffffffffffffffffff167f17307eab39ab6107e8899845ad3d59bd9653f200f220920489ca2b5937696c31836040516117779190612aa8565b60405180910390a3505050565b61178f8484846111e4565b61179b84848484611cb7565b6117da576040517f08c379a00000000000000000000000000000000000000000000000000000000081526004016117d190612b05565b60405180910390fd5b50505050565b6001816000016000828254019250508190555050565b600081600001549050919050565b600073ffffffffffffffffffffffffffffffffffffffff168273ffffffffffffffffffffffffffffffffffffffff161415611874576040517f08c379a000000000000000000000000000000000000000000000000000000000815260040161186b90612c25565b60405180910390fd5b61187d81610fd9565b156118bd576040517f08c379a00000000000000000000000000000000000000000000000000000000081526004016118b490612b45565b60405180910390fd5b6118c960008383611ca7565b6001600360008473ffffffffffffffffffffffffffffffffffffffff1673ffffffffffffffffffffffffffffffffffffffff16815260200190815260200160002060008282546119199190612e32565b92505081905550816002600083815260200190815260200160002060006101000a81548173ffffffffffffffffffffffffffffffffffffffff021916908373ffffffffffffffffffffffffffffffffffffffff160217905550808273ffffffffffffffffffffffffffffffffffffffff16600073ffffffffffffffffffffffffffffffffffffffff167fddf252ad1be2c89b69c2b068fc378daa952ba7f163c4a11628f55a4df523b3ef60405160405180910390a45050565b6060600c80546119e190612fa3565b80601f0160208091040260200160405190810160405280929190818152602001828054611a0d90612fa3565b8015611a5a5780601f10611a2f57610100808354040283529160200191611a5a565b820191906000526020600020905b815481529060010190602001808311611a3d57829003601f168201915b5050505050905090565b60606000821415611aac576040518060400160405280600181526020017f30000000000000000000000000000000000000000000000000000000000000008152509050611bc0565b600082905060005b60008214611ade578080611ac790613006565b915050600a82611ad79190612e88565b9150611ab4565b60008167ffffffffffffffff811115611afa57611af961316b565b5b6040519080825280601f01601f191660200182016040528015611b2c5781602001600182028036833780820191505090505b5090505b60008514611bb957600182611b459190612eb9565b9150600a85611b54919061304f565b6030611b609190612e32565b60f81b818381518110611b7657611b7561313c565b5b60200101907effffffffffffffffffffffffffffffffffffffffffffffffffffffffffffff1916908160001a905350600a85611bb29190612e88565b9450611b30565b8093505050505b919050565b60007f80ac58cd000000000000000000000000000000000000000000000000000000007bffffffffffffffffffffffffffffffffffffffffffffffffffffffff1916827bffffffffffffffffffffffffffffffffffffffffffffffffffffffff19161480611c9057507f5b5e139f000000000000000000000000000000000000000000000000000000007bffffffffffffffffffffffffffffffffffffffffffffffffffffffff1916827bffffffffffffffffffffffffffffffffffffffffffffffffffffffff1916145b80611ca05750611c9f82611e4e565b5b9050919050565b611cb2838383611eb8565b505050565b6000611cd88473ffffffffffffffffffffffffffffffffffffffff16611fcc565b15611e41578373ffffffffffffffffffffffffffffffffffffffff1663150b7a02611d01611045565b8786866040518563ffffffff1660e01b8152600401611d239493929190612a3a565b602060405180830381600087803b158015611d3d57600080fd5b505af1925050508015611d6e57506040513d601f19601f82011682018060405250810190611d6b91906125b3565b60015b611df1573d8060008114611d9e576040519150601f19603f3d011682016040523d82523d6000602084013e611da3565b606091505b50600081511415611de9576040517f08c379a0000000000000000000000000000000000000000000000000000000008152600401611de090612b05565b60405180910390fd5b805181602001fd5b63150b7a0260e01b7bffffffffffffffffffffffffffffffffffffffffffffffffffffffff1916817bffffffffffffffffffffffffffffffffffffffffffffffffffffffff191614915050611e46565b600190505b949350505050565b60007f01ffc9a7000000000000000000000000000000000000000000000000000000007bffffffffffffffffffffffffffffffffffffffffffffffffffffffff1916827bffffffffffffffffffffffffffffffffffffffffffffffffffffffff1916149050919050565b611ec3838383611fdf565b600073ffffffffffffffffffffffffffffffffffffffff168373ffffffffffffffffffffffffffffffffffffffff161415611f0657611f0181611fe4565b611f45565b8173ffffffffffffffffffffffffffffffffffffffff168373ffffffffffffffffffffffffffffffffffffffff1614611f4457611f43838261202d565b5b5b600073ffffffffffffffffffffffffffffffffffffffff168273ffffffffffffffffffffffffffffffffffffffff161415611f8857611f838161219a565b611fc7565b8273ffffffffffffffffffffffffffffffffffffffff168273ffffffffffffffffffffffffffffffffffffffff1614611fc657611fc5828261226b565b5b5b505050565b600080823b905060008111915050919050565b505050565b6008805490506009600083815260200190815260200160002081905550600881908060018154018082558091505060019003906000526020600020016000909190919091505550565b6000600161203a8461095f565b6120449190612eb9565b9050600060076000848152602001908152602001600020549050818114612129576000600660008673ffffffffffffffffffffffffffffffffffffffff1673ffffffffffffffffffffffffffffffffffffffff168152602001908152602001600020600084815260200190815260200160002054905080600660008773ffffffffffffffffffffffffffffffffffffffff1673ffffffffffffffffffffffffffffffffffffffff168152602001908152602001600020600084815260200190815260200160002081905550816007600083815260200190815260200160002081905550505b6007600084815260200190815260200160002060009055600660008573ffffffffffffffffffffffffffffffffffffffff1673ffffffffffffffffffffffffffffffffffffffff16815260200190815260200160002060008381526020019081526020016000206000905550505050565b600060016008805490506121ae9190612eb9565b90506000600960008481526020019081526020016000205490506000600883815481106121de576121dd61313c565b5b906000526020600020015490508060088381548110612200576121ff61313c565b5b90600052602060002001819055508160096000838152602001908152602001600020819055506009600085815260200190815260200160002060009055600880548061224f5761224e61310d565b5b6001900381819060005260206000200160009055905550505050565b60006122768361095f565b905081600660008573ffffffffffffffffffffffffffffffffffffffff1673ffffffffffffffffffffffffffffffffffffffff168152602001908152602001600020600083815260200190815260200160002081905550806007600084815260200190815260200160002081905550505050565b60006122fd6122f884612d85565b612d60565b9050828152602081018484840111156123195761231861319f565b5b612324848285612f61565b509392505050565b60008135905061233b81613704565b92915050565b6000813590506123508161371b565b92915050565b60008135905061236581613732565b92915050565b60008151905061237a81613732565b92915050565b600082601f8301126123955761239461319a565b5b81356123a58482602086016122ea565b91505092915050565b6000813590506123bd81613749565b92915050565b6000602082840312156123d9576123d86131a9565b5b60006123e78482850161232c565b91505092915050565b60008060408385031215612407576124066131a9565b5b60006124158582860161232c565b92505060206124268582860161232c565b9150509250929050565b600080600060608486031215612449576124486131a9565b5b60006124578682870161232c565b93505060206124688682870161232c565b9250506040612479868287016123ae565b9150509250925092565b6000806000806080858703121561249d5761249c6131a9565b5b60006124ab8782880161232c565b94505060206124bc8782880161232c565b93505060406124cd878288016123ae565b925050606085013567ffffffffffffffff8111156124ee576124ed6131a4565b5b6124fa87828801612380565b91505092959194509250565b6000806040838503121561251d5761251c6131a9565b5b600061252b8582860161232c565b925050602061253c85828601612341565b9150509250929050565b6000806040838503121561255d5761255c6131a9565b5b600061256b8582860161232c565b925050602061257c858286016123ae565b9150509250929050565b60006020828403121561259c5761259b6131a9565b5b60006125aa84828501612356565b91505092915050565b6000602082840312156125c9576125c86131a9565b5b60006125d78482850161236b565b91505092915050565b6000602082840312156125f6576125f56131a9565b5b6000612604848285016123ae565b91505092915050565b600061261983836129dd565b60208301905092915050565b61262e81612eed565b82525050565b600061263f82612dc6565b6126498185612df4565b935061265483612db6565b8060005b8381101561268557815161266c888261260d565b975061267783612de7565b925050600181019050612658565b5085935050505092915050565b61269b81612eff565b82525050565b60006126ac82612dd1565b6126b68185612e05565b93506126c6818560208601612f70565b6126cf816131ae565b840191505092915050565b60006126e582612ddc565b6126ef8185612e16565b93506126ff818560208601612f70565b612708816131ae565b840191505092915050565b600061271e82612ddc565b6127288185612e27565b9350612738818560208601612f70565b80840191505092915050565b6000612751602b83612e16565b915061275c826131bf565b604082019050919050565b6000612774603283612e16565b915061277f8261320e565b604082019050919050565b6000612797602683612e16565b91506127a28261325d565b604082019050919050565b60006127ba601c83612e16565b91506127c5826132ac565b602082019050919050565b60006127dd602483612e16565b91506127e8826132d5565b604082019050919050565b6000612800601983612e16565b915061280b82613324565b602082019050919050565b6000612823602c83612e16565b915061282e8261334d565b604082019050919050565b6000612846603883612e16565b91506128518261339c565b604082019050919050565b6000612869602a83612e16565b9150612874826133eb565b604082019050919050565b600061288c602983612e16565b91506128978261343a565b604082019050919050565b60006128af602083612e16565b91506128ba82613489565b602082019050919050565b60006128d2602c83612e16565b91506128dd826134b2565b604082019050919050565b60006128f5602083612e16565b915061290082613501565b602082019050919050565b6000612918602983612e16565b91506129238261352a565b604082019050919050565b600061293b602f83612e16565b915061294682613579565b604082019050919050565b600061295e602183612e16565b9150612969826135c8565b604082019050919050565b6000612981603183612e16565b915061298c82613617565b604082019050919050565b60006129a4602c83612e16565b91506129af82613666565b604082019050919050565b60006129c7603083612e16565b91506129d2826136b5565b604082019050919050565b6129e681612f57565b82525050565b6129f581612f57565b82525050565b6000612a078285612713565b9150612a138284612713565b91508190509392505050565b6000602082019050612a346000830184612625565b92915050565b6000608082019050612a4f6000830187612625565b612a5c6020830186612625565b612a6960408301856129ec565b8181036060830152612a7b81846126a1565b905095945050505050565b60006020820190508181036000830152612aa08184612634565b905092915050565b6000602082019050612abd6000830184612692565b92915050565b60006020820190508181036000830152612add81846126da565b905092915050565b60006020820190508181036000830152612afe81612744565b9050919050565b60006020820190508181036000830152612b1e81612767565b9050919050565b60006020820190508181036000830152612b3e8161278a565b9050919050565b60006020820190508181036000830152612b5e816127ad565b9050919050565b60006020820190508181036000830152612b7e816127d0565b9050919050565b60006020820190508181036000830152612b9e816127f3565b9050919050565b60006020820190508181036000830152612bbe81612816565b9050919050565b60006020820190508181036000830152612bde81612839565b9050919050565b60006020820190508181036000830152612bfe8161285c565b9050919050565b60006020820190508181036000830152612c1e8161287f565b9050919050565b60006020820190508181036000830152612c3e816128a2565b9050919050565b60006020820190508181036000830152612c5e816128c5565b9050919050565b60006020820190508181036000830152612c7e816128e8565b9050919050565b60006020820190508181036000830152612c9e8161290b565b9050919050565b60006020820190508181036000830152612cbe8161292e565b9050919050565b60006020820190508181036000830152612cde81612951565b9050919050565b60006020820190508181036000830152612cfe81612974565b9050919050565b60006020820190508181036000830152612d1e81612997565b9050919050565b60006020820190508181036000830152612d3e816129ba565b9050919050565b6000602082019050612d5a60008301846129ec565b92915050565b6000612d6a612d7b565b9050612d768282612fd5565b919050565b6000604051905090565b600067ffffffffffffffff821115612da057612d9f61316b565b5b612da9826131ae565b9050602081019050919050565b6000819050602082019050919050565b600081519050919050565b600081519050919050565b600081519050919050565b6000602082019050919050565b600082825260208201905092915050565b600082825260208201905092915050565b600082825260208201905092915050565b600081905092915050565b6000612e3d82612f57565b9150612e4883612f57565b9250827fffffffffffffffffffffffffffffffffffffffffffffffffffffffffffffffff03821115612e7d57612e7c613080565b5b828201905092915050565b6000612e9382612f57565b9150612e9e83612f57565b925082612eae57612ead6130af565b5b828204905092915050565b6000612ec482612f57565b9150612ecf83612f57565b925082821015612ee257612ee1613080565b5b828203905092915050565b6000612ef882612f37565b9050919050565b60008115159050919050565b60007fffffffff0000000000000000000000000000000000000000000000000000000082169050919050565b600073ffffffffffffffffffffffffffffffffffffffff82169050919050565b6000819050919050565b82818337600083830152505050565b60005b83811015612f8e578082015181840152602081019050612f73565b83811115612f9d576000848401525b50505050565b60006002820490506001821680612fbb57607f821691505b60208210811415612fcf57612fce6130de565b5b50919050565b612fde826131ae565b810181811067ffffffffffffffff82111715612ffd57612ffc61316b565b5b80604052505050565b600061301182612f57565b91507fffffffffffffffffffffffffffffffffffffffffffffffffffffffffffffffff82141561304457613043613080565b5b600182019050919050565b600061305a82612f57565b915061306583612f57565b925082613075576130746130af565b5b828206905092915050565b7f4e487b7100000000000000000000000000000000000000000000000000000000600052601160045260246000fd5b7f4e487b7100000000000000000000000000000000000000000000000000000000600052601260045260246000fd5b7f4e487b7100000000000000000000000000000000000000000000000000000000600052602260045260246000fd5b7f4e487b7100000000000000000000000000000000000000000000000000000000600052603160045260246000fd5b7f4e487b7100000000000000000000000000000000000000000000000000000000600052603260045260246000fd5b7f4e487b7100000000000000000000000000000000000000000000000000000000600052604160045260246000fd5b600080fd5b600080fd5b600080fd5b600080fd5b6000601f19601f8301169050919050565b7f455243373231456e756d657261626c653a206f776e657220696e646578206f7560008201527f74206f6620626f756e6473000000000000000000000000000000000000000000602082015250565b7f4552433732313a207472616e7366657220746f206e6f6e20455243373231526560008201527f63656976657220696d706c656d656e7465720000000000000000000000000000602082015250565b7f4f776e61626c653a206e6577206f776e657220697320746865207a65726f206160008201527f6464726573730000000000000000000000000000000000000000000000000000602082015250565b7f4552433732313a20746f6b656e20616c7265616479206d696e74656400000000600082015250565b7f4552433732313a207472616e7366657220746f20746865207a65726f2061646460008201527f7265737300000000000000000000000000000000000000000000000000000000602082015250565b7f4552433732313a20617070726f766520746f2063616c6c657200000000000000600082015250565b7f4552433732313a206f70657261746f7220717565727920666f72206e6f6e657860008201527f697374656e7420746f6b656e0000000000000000000000000000000000000000602082015250565b7f4552433732313a20617070726f76652063616c6c6572206973206e6f74206f7760008201527f6e6572206e6f7220617070726f76656420666f7220616c6c0000000000000000602082015250565b7f4552433732313a2062616c616e636520717565727920666f7220746865207a6560008201527f726f206164647265737300000000000000000000000000000000000000000000602082015250565b7f4552433732313a206f776e657220717565727920666f72206e6f6e657869737460008201527f656e7420746f6b656e0000000000000000000000000000000000000000000000602082015250565b7f4552433732313a206d696e7420746f20746865207a65726f2061646472657373600082015250565b7f4552433732313a20617070726f76656420717565727920666f72206e6f6e657860008201527f697374656e7420746f6b656e0000000000000000000000000000000000000000602082015250565b7f4f776e61626c653a2063616c6c6572206973206e6f7420746865206f776e6572600082015250565b7f4552433732313a207472616e73666572206f6620746f6b656e2074686174206960008201527f73206e6f74206f776e0000000000000000000000000000000000000000000000602082015250565b7f4552433732314d657461646174613a2055524920717565727920666f72206e6f60008201527f6e6578697374656e7420746f6b656e0000000000000000000000000000000000602082015250565b7f4552433732313a20617070726f76616c20746f2063757272656e74206f776e6560008201527f7200000000000000000000000000000000000000000000000000000000000000602082015250565b7f4552433732313a207472616e736665722063616c6c6572206973206e6f74206f60008201527f776e6572206e6f7220617070726f766564000000000000000000000000000000602082015250565b7f455243373231456e756d657261626c653a20676c6f62616c20696e646578206f60008201527f7574206f6620626f756e64730000000000000000000000000000000000000000602082015250565b7f4552433732314275726e61626c653a2063616c6c6572206973206e6f74206f7760008201527f6e6572206e6f7220617070726f76656400000000000000000000000000000000602082015250565b61370d81612eed565b811461371857600080fd5b50565b61372481612eff565b811461372f57600080fd5b50565b61373b81612f0b565b811461374657600080fd5b50565b61375281612f57565b811461375d57600080fd5b5056fea2646970667358221220a1f3b22d70e07bba62e87c1f25ded0fcd81d5bb8d34b8d9b56b81eeedf5bb84564736f6c63430008060033",
    "immutableReferences": {},
    "source": "// SPDX-License-Identifier: MIT\n\npragma solidity ^0.8.6;\n\nimport \"@openzeppelin/contracts/token/ERC721/ERC721.sol\";\nimport \"@openzeppelin/contracts/token/ERC721/extensions/ERC721Enumerable.sol\";\nimport \"@openzeppelin/contracts/token/ERC721/extensions/ERC721Burnable.sol\";\nimport \"@openzeppelin/contracts/utils/Counters.sol\";\nimport \"@openzeppelin/contracts/access/Ownable.sol\";\n\ncontract HotelNFT is ERC721Enumerable, ERC721Burnable, Ownable {\n  using Counters for Counters.Counter;\n  Counters.Counter private _tokenIds;\n  string private _baseTokenURI;\n  address contractAddress;\n\n\n  constructor(string memory baseTokenURI) ERC721(\"Hotel NFT\", \"HNFT\") {\n    _baseTokenURI = baseTokenURI;\n  }\n\n  function _baseURI() internal view virtual override returns (string memory) {\n    return _baseTokenURI;\n  }\n\n  function createToken(address user) public onlyOwner returns (uint) {\n    _tokenIds.increment();\n    uint256 newItemId = _tokenIds.current();\n\n    _mint(user, newItemId);\n    return newItemId;\n  }\n\n  function getTokenIds(address _owner) public view returns (uint[] memory) {\n    uint[] memory _tokensOfOwner = new uint[](ERC721.balanceOf(_owner));\n    uint i;\n\n    for (i = 0; i < ERC721.balanceOf(_owner); i++) {\n      _tokensOfOwner[i] = ERC721Enumerable.tokenOfOwnerByIndex(_owner, i);\n    }\n    return (_tokensOfOwner);\n  }\n\n  function _beforeTokenTransfer(address from, address to, uint256 tokenId) internal virtual override(ERC721, ERC721Enumerable) {\n    super._beforeTokenTransfer(from, to, tokenId);\n  }\n\n  /**\n   * @dev See {IERC165-supportsInterface}.\n     */\n  function supportsInterface(bytes4 interfaceId) public view virtual override(ERC721, ERC721Enumerable) returns (bool) {\n    return super.supportsInterface(interfaceId);\n  }\n}\n",
    "sourcePath": "/Users/jmoreno/projects/obiwan/contracts/HotelNFT.sol",
    "compiler": {
        "name": "solc",
        "version": "0.8.6+commit.11564f7e.Emscripten.clang"
    },
    "schemaVersion": "3.4.3",
    "updatedAt": "2021-12-28T21:02:45.213Z",
    "networkType": "ethereum",
    "devdoc": {
        "kind": "dev",
        "methods": {
            "approve(address,uint256)": {
                "details": "See {IERC721-approve}."
            },
            "balanceOf(address)": {
                "details": "See {IERC721-balanceOf}."
            },
            "burn(uint256)": {
                "details": "Burns `tokenId`. See {ERC721-_burn}. Requirements: - The caller must own `tokenId` or be an approved operator."
            },
            "getApproved(uint256)": {
                "details": "See {IERC721-getApproved}."
            },
            "isApprovedForAll(address,address)": {
                "details": "See {IERC721-isApprovedForAll}."
            },
            "name()": {
                "details": "See {IERC721Metadata-name}."
            },
            "owner()": {
                "details": "Returns the address of the current owner."
            },
            "ownerOf(uint256)": {
                "details": "See {IERC721-ownerOf}."
            },
            "renounceOwnership()": {
                "details": "Leaves the contract without owner. It will not be possible to call `onlyOwner` functions anymore. Can only be called by the current owner. NOTE: Renouncing ownership will leave the contract without an owner, thereby removing any functionality that is only available to the owner."
            },
            "safeTransferFrom(address,address,uint256)": {
                "details": "See {IERC721-safeTransferFrom}."
            },
            "safeTransferFrom(address,address,uint256,bytes)": {
                "details": "See {IERC721-safeTransferFrom}."
            },
            "setApprovalForAll(address,bool)": {
                "details": "See {IERC721-setApprovalForAll}."
            },
            "supportsInterface(bytes4)": {
                "details": "See {IERC165-supportsInterface}."
            },
            "symbol()": {
                "details": "See {IERC721Metadata-symbol}."
            },
            "tokenByIndex(uint256)": {
                "details": "See {IERC721Enumerable-tokenByIndex}."
            },
            "tokenOfOwnerByIndex(address,uint256)": {
                "details": "See {IERC721Enumerable-tokenOfOwnerByIndex}."
            },
            "tokenURI(uint256)": {
                "details": "See {IERC721Metadata-tokenURI}."
            },
            "totalSupply()": {
                "details": "See {IERC721Enumerable-totalSupply}."
            },
            "transferFrom(address,address,uint256)": {
                "details": "See {IERC721-transferFrom}."
            },
            "transferOwnership(address)": {
                "details": "Transfers ownership of the contract to a new account (`newOwner`). Can only be called by the current owner."
            }
        },
        "version": 1
    },
    "userdoc": {
        "kind": "user",
        "methods": {},
        "version": 1
    }
}